:020000040000FA
:100000000C9462000C948A000C948A000C948A0070
:100010000C948A000C948A000C948A000C948A0038
:100020000C948A000C948A000C948A000C948A0028
:100030000C948A000C948A000C948A000C948A0018
:100040000C94FE050C948A000C94CC050C94A60527
:100050000C948A000C948A000C948A000C948A00F8
:100060000C948A000C948A000000000024002700F1
:100070002A0000000000250028002B0000000008D6
:10008000000201000003040700000000000000005F
:1000900000000000230026002900040404040404D6
:1000A0000404020202020202030303030303010227
:1000B00004081020408001020408102001020408F6
:1000C0001020480611241FBECFEFD8E0DEBFCDBF01
:1000D00013E0A0E0B1E0E8ECF9E102C005900D9278
:1000E000A433B107D9F724E0A4E3B3E001C01D9223
:1000F000AB31B207E1F710E0C2E6D0E004C02197CF
:10010000FE010E94DC0CC136D107C9F70E94B4067B
:100110000C94E20C0C940000CF92DF92EF92FF92CD
:10012000CF93DF93B091F703A0E08111AB2F8091C3
:10013000F80390E0880F991FAC0140575F4FC090C3
:10014000FD03D090FE03E090FF03F090000430E048
:1001500020E0FA01C591D491E881B90190E080E0F6
:10016000EB23EA130AC02F5F3F4F6C157D058E0508
:100170009F0578F36FEF7FEFCB01DF91CF91FF9079
:10018000EF90DF90CF900895AF92BF92CF92DF9221
:10019000EF92FF920F931F93CF93DF936C017B013C
:1001A0008B01040F151FEB015E01AE18BF08C017CD
:1001B000D10759F06991D601ED91FC910190F08140
:1001C000E02DC6010995892B79F7C501DF91CF9103
:1001D0001F910F91FF90EF90DF90CF90BF90AF9065
:1001E0000895FC01538D448D252F30E0842F90E03D
:1001F000821B930B541710F0CF9608950197089522
:10020000FC01918D828D981761F0A28DAE0FBF2FEA
:10021000B11D5D968C91928D9F5F9F73928F90E040
:1002200008958FEF9FEF0895FC01918D828D9817AF
:1002300031F0828DE80FF11D858D90E008958FEFEC
:100240009FEF0895FC01918D228D892F90E0805CB5
:100250009F4F821B91098F739927089583E593E03F
:100260000E94220121E0892B09F420E0822F0895C9
:1002700080E090E0892B29F00E942E0181110C94DE
:1002800000000895FC01A48DA80FB92FB11DA35A39
:10029000BF4F2C91848D90E001968F739927848FA6
:1002A000A689B7892C93A089B1898C9183708064C9
:1002B0008C93938D848D981306C00288F389E02D6A
:1002C00080818F7D80830895EF92FF920F931F931B
:1002D000CF93DF93EC0181E0888F9B8D8C8D9813F9
:1002E0001AC0E889F989808185FF15C09FB7F89405
:1002F000EE89FF896083E889F98980818370806451
:1003000080839FBF81E090E0DF91CF911F910F919B
:10031000FF90EF900895F62E0B8D10E00F5F1F4FAA
:100320000F731127E02E8C8D8E110CC00FB607FCB9
:10033000FACFE889F989808185FFF5CFCE010E9447
:100340004201F1CFEB8DEC0FFD2FF11DE35AFF4F72
:10035000F0829FB7F8940B8FEA89FB8980818062D5
:10036000CFCFCF93DF93EC01888D8823B9F0AA8992
:10037000BB89E889F9898C9185FD03C0808186FD60
:100380000DC00FB607FCF7CF8C9185FFF2CF8081AF
:1003900085FFEDCFCE010E944201E9CFDF91CF91E1
:1003A0000895833081F028F4813099F08230A9F0EB
:1003B00008958730A9F08830C9F08430B1F4809175
:1003C00080008F7D03C0809180008F7780938000B4
:1003D000089584B58F7784BD089584B58F7DFBCF54
:1003E0008091B0008F778093B00008958091B00025
:1003F0008F7DF9CFCF93DF93282F30E0F901E458B8
:10040000FF4F8491F901E255FF4FD491F901E6566F
:10041000FF4FC491CC23A1F081110E94D101EC2F98
:10042000F0E0EE0FFF1FE057FF4FA591B491EC9164
:10043000ED2381E090E009F480E0DF91CF91089511
:1004400080E090E0FACF1F93CF93DF93282F30E026
:10045000F901E458FF4F8491F901E255FF4FD4911F
:10046000F901E656FF4FC491CC23A9F0162F811154
:100470000E94D101EC2FF0E0EE0FFF1FEE58FF4F6E
:10048000A591B4918FB7F894EC91111108C0D09553
:10049000DE23DC938FBFDF91CF911F910895DE2B78
:1004A000F8CFCF93DF9390E0FC01E255FF4F24910A
:1004B00086569F4FFC0184918823C9F090E0880FF5
:1004C000991FFC01E859FF4FA591B491FC01EE582A
:1004D000FF4FC591D49161110DC09FB7F8948C91D5
:1004E000209582238C938881282328839FBFDF91C6
:1004F000CF910895623051F49FB7F8943C91822FC8
:10050000809583238C93E8812E2BEFCF8FB7F894BF
:10051000EC912E2B2C938FBFEACF3FB7F8948091AC
:10052000350390913603A0913703B091380326B577
:10053000A89B05C02F3F19F00196A11DB11D3FBF1B
:10054000BA2FA92F982F8827BC01CD01620F711DEA
:10055000811D911D42E0660F771F881F991F4A95E4
:10056000D1F708958F929F92AF92BF92CF92DF9270
:10057000EF92FF924B015C010E948D026B017C01A6
:100580000E948D026C197D098E099F09683E734097
:1005900081059105A8F321E0821A9108A108B1080C
:1005A00088EEC80E83E0D81EE11CF11C8114910472
:1005B000A104B10429F7FF90EF90DF90CF90BF9096
:1005C000AF909F908F900895CF92DF92EF92FF921D
:1005D0000F931F93CF93DF93CDB7DEB7C054D140B5
:1005E0000FB6F894DEBF0FBECDBF2FB7F894809141
:1005F0004F0390915003A0915103B09152032FBF2C
:100600004091F9035091FA036091FB037091FC0350
:100610008C019D01041B150B260B370BB901A8019A
:10062000403D57406105710590F480910104C05C24
:10063000DE4F0FB6F894DEBF0FBECDBFDF91CF9176
:100640001F910F91FF90EF90DF90CF9008958093CE
:10065000F9039093FA03A093FB03B093FC03109269
:10066000F4031092F3031092F2031092F10310922C
:10067000F00362E08091F5030E94510261E070E0B6
:1006800080E090E00E94B20261E08091F5030E9458
:10069000510260E08091F5030E9423028091F603ED
:1006A0008551823020F58BE291E10197F1F762E00C
:1006B0008091F5030E9451028091020490E0823003
:1006C000910538F0880F991F880F991F059701979A
:1006D000F1F7F89480E00E948C006F3F7F4F8F4FBE
:1006E0009F4F61F410920104789480E0A0CF64E100
:1006F00070E080E090E00E94B202D9CF81E00E94D9
:100700008C006F3F7F4F8F4F9F4F61F38E010F5FC4
:100710001F4F6E018FEBC81A8EEFD80A780180E068
:100720000E948C00F701608371838283938381E050
:100730000E948C00F7016483758386839783F8E0B9
:10074000EF0EF11CEC14FD0451F7789430E020E03A
:10075000F801C080D180E280F380448155816681B8
:100760007781FFEFCF16DF06EF06FF0631F04F3F30
:100770008FEF58076807780719F410920104B5CF76
:10078000F90183E0F595E7958A95E1F7E051FC4F93
:100790008081880FC416D506E606F70610F180831F
:1007A0002F5F3F4F085F1F4F2832310589F6409178
:1007B000F4032091F0038091F103280F3327331FB6
:1007C0008091F203280F311D8091F303820F932F44
:1007D000911D99274817190681F681E0809301043D
:1007E00026CF8160DCCF089590E080E00895DC01A1
:1007F000680F791F9FEF8FEFA617B70769F02D914C
:10080000292730E0F901E050FE4F90819827F90147
:10081000E050FF4F8081F0CF0895FC01019000204F
:10082000E9F73197AF01481B590BBC0183E094E015
:100830000C94C4008F929F92AF92BF920F931F931C
:10084000CF93DF93CDB7DEB7A1970FB6F894DEBF95
:100850000FBECDBF19A2423008F44AE08E010F5DF1
:100860001F4F842E912CB12CA12CA50194010E9424
:10087000BA0CE62FB901CA01EA30F4F4E05DD80100
:10088000EE938D01232B242B252B79F790E080E02C
:10089000109719F0CD010E940D04A1960FB6F8949F
:1008A000DEBF0FBECDBFDF91CF911F910F91BF90E3
:1008B000AF909F908F900895E95CE1CFCF93DF9345
:1008C000EC0160E08E810E94230261E08E810E9433
:1008D000230260E08E810E9423028BE891E0019761
:1008E000F1F7DF91CF910895CF92DF92EF92FF92CF
:1008F0000F931F93CF93DF936C017C0187E0E80E89
:10090000F11CD0E0C0E0062F10E0B8010C2E02C0B0
:10091000759567950A94E2F76170F70181917F01FF
:100920000E9423022196C430D10579F7C601DF91D8
:10093000CF911F910F91FF90EF90DF90CF900C948B
:100940005E04CF92DF92EF92FF920F931F93CF93AB
:10095000DF93EC01F62E642F8C810E9423028D819F
:100960008F3F19F060E00E9423020F2D10E08F8569
:1009700084FF25C06E0187E0C80ED11CF12CE12C4C
:10098000B8010E2C02C0759567950A94E2F7617064
:10099000F60181916F010E942302FFEFEF1AFF0A17
:1009A00088E0E816F10461F7CE01DF91CF911F9145
:1009B0000F91FF90EF90DF90CF900C945E04B80100
:1009C00084E0759567958A95E1F7CE010E947404DD
:1009D0006F2DCE01DF91CF911F910F91FF90EF907E
:1009E000DF90CF900C94740440E0682F83E094E093
:1009F0000C94A104CF93DF93823029F490911204D8
:100A0000986090931204809316041092170480E467
:100A10008093180480E18093190480E580931A0480
:100A200061E0809107040E945102809108048F3F89
:100A300019F061E00E94510261E0809109040E9476
:100A40005102C3E0D4E09E0123503440809112044F
:100A500084FD0BC084E090E021962817390744F408
:100A600061E08E810E945102EECF88E090E0F4CFE9
:100A70008BE39DE00197F1F760E0809107040E940D
:100A8000230260E0809109040E94230280910804FF
:100A90008F3F19F060E00E9423028091120484FDD0
:100AA00039C063E083E094E00E947404CBE4D6E4B0
:100AB000CE010197F1F763E083E094E00E947404B3
:100AC0002197F1F763E083E094E00E94740483E5EA
:100AD00092E00197F1F762E083E094E00E947404F1
:100AE0008091120480620E94F40484E080931304D5
:100AF0008CE00E94F40481E00E94F4048BE39FE107
:100B00000197F1F782E08093140486E0DF91CF91A2
:100B10000C94F40480620E94F4048BE496E4019740
:100B2000F1F78091120480620E94F40483E592E060
:100B30000197F1F78091120480620E94F404D0CFF3
:100B400041E00E94A10481E090E008951F920F927D
:100B50000FB60F9211242F933F934F935F936F9390
:100B60007F938F939F93AF93BF93EF93FF9383E50F
:100B700093E00E944201FF91EF91BF91AF919F914D
:100B80008F917F916F915F914F913F912F910F9036
:100B90000FBE0F901F9018951F920F920FB60F92D5
:100BA00011242F938F939F93EF93FF93E09163030F
:100BB000F09164038081E0916903F0916A0382FD02
:100BC0001BC0908180916C038F5F8F7320916D03A8
:100BD000821741F0E0916C03F0E0ED5AFC4F958FE5
:100BE00080936C03FF91EF919F918F912F910F90C4
:100BF0000FBE0F901F9018958081F4CF1F920F9217
:100C00000FB60F9211242F933F938F939F93AF931F
:100C1000BF9380914F0390915003A0915103B091E5
:100C200052033091340323E0230F2D3758F50196FA
:100C3000A11DB11D2093340380934F039093500363
:100C4000A0935103B09352038091350390913603E2
:100C5000A0913703B09138030196A11DB11D809377
:100C6000350390933603A0933703B0933803BF91B5
:100C7000AF919F918F913F912F910F900FBE0F9049
:100C80001F90189526E8230F0296A11DB11DD2CF03
:100C9000CF93E3E5F3E01382128288EE93E0A0E0C5
:100CA000B0E084839583A683B78384E093E0918347
:100CB000808385EC90E09587848784EC90E097872B
:100CC000868780EC90E0918B808B81EC90E0938B19
:100CD000828B82EC90E0958B848B86EC90E0978BF6
:100CE000868B118E128E138E148EE3E0F4E0138245
:100CF000128286E193E0918380838CE084838FEF7E
:100D00008583CBE0C68385E0878384E0808783E0AA
:100D1000818782E082871386148615861686178659
:100D200081E00E94FA04A0EFB3E08AE015968C936C
:100D300015971696CC931697E8EBF0E0E49117968A
:100D4000EC931797E4EAF0E0E4911896EC93189787
:100D500040E85EE360E070E01D964D935D936D9317
:100D60007C935097CF910895CF93DF93CDB7DEB7A3
:100D70006E970FB6F894DEBF0FBECDBF789484B5E2
:100D8000826084BD84B5816084BD85B5826085BD87
:100D900085B5816085BD80916E00816080936E0015
:100DA0001092810080918100826080938100809107
:100DB00081008160809381008091800081608093B8
:100DC00080008091B10084608093B1008091B00078
:100DD00081608093B00080917A00846080937A0073
:100DE00080917A00826080937A0080917A0081609D
:100DF00080937A0080917A00806880937A001092C4
:100E0000C10082E00E94FA048EE193E00E940D048A
:100E1000E0916303F091640382E08083E0915F03DB
:100E2000F09160031082E0916103F09162038FEC16
:100E3000808310926B03E0916703F091680386E072
:100E40008083E0916503F0916603808180618083F7
:100E5000E0916503F0916603808188608083E09172
:100E60006503F0916603808180688083E09165036B
:100E7000F091660380818F7D808361E086E00E942F
:100E8000510261E087E00E94510261E088E00E9427
:100E9000510261E089E00E94510260E08EE00E9410
:100EA000510260E08FE00E94510260E080E10E9408
:100EB000510260E081E10E9451025AE2252E312C5C
:100EC00067E2A62EB12C76E2872E912C83E593E083
:100ED0000E942201181619060CF047C083E593E022
:100EE0000E940001182FE0914D03F0914E03E23370
:100EF000F10508F03AC0E158F84F0C94DC0CB1074A
:100F0000C207D707E007E907EE07F307F807FD0771
:100F100002080708C608C908E208E808EE08F4084D
:100F2000FA0800091B091E092B09310937093D0977
:100F3000430946097E0984098A09900995099A0995
:100F40009F09A409A909AE09B309CB09D009DD0994
:100F5000E309F009F609FC09FF09900A960A9C0AC0
:100F60009F0A81E090E0113031F180E090E0892B20
:100F700009F4ACCF0E942E01882309F49ECF0E9471
:100F800000009BCF82E090E01031A9F08DE090E06E
:100F90001F3089F085E190E0123069F088E290E03E
:100FA000133049F010924E0310924D03DECF83E0D0
:100FB00090E01111F7CF90934E0380934D03D5CF5E
:100FC00084E090E01630B9F38BE190E0112399F3BF
:100FD000E9CF85E090E0112371F3E4CF86E090E063
:100FE000123001F7E8CF87E090E01430D9F6E3CF74
:100FF00080934A0388E090E0DECF8093490389E044
:1010000090E0D9CF80934C038AE090E0D4CF8093D6
:101010004B03E0911604E33018F5E150F0E0ED5F8A
:10102000FB4F848980680E94F40484E293E00E946C
:101030000D04C0904903D0904A03E0904B03F09018
:101040004C03A7019601C701B6010E94B50C882385
:1010500049F088E293E00E940D048BE090E0ABCF72
:10106000E2E0DCCF26013701E89477F82FEF3FEF7D
:101070004FE75FE7C301B2010E94B50C81110DC0BB
:101080002FEF3FEF4FE75FE7C301B2010E945D0B17
:1010900018161CF48CE293E0DECF2FEF3FEF4FE702
:1010A0005FE4C701B6010E94430C18161CF480E3EC
:1010B00093E0D1CF2FEF3FEF4FE75FECC701B601D1
:1010C0000E945D0B87FDF3CF20E030E0A901C7014E
:1010D000B6010E945D0B87FF0AC041E06DE283E02C
:1010E00094E00E94A104F7FAF094F7F8F0942AE053
:1010F00037ED43EA5BE3C701B6010E94F10A2B0119
:101100003C010E94620B6B017C010E94910B9B01D0
:10111000AC01C301B2010E94F00A2B013C014AE07C
:10112000C701B6010E941A0441E06EE283E094E038
:101130000E94A10420E030E040E251E4C301B2018A
:101140000E94480C2B013C010E94620B6B01F12CA8
:10115000E12C4AE0C701B6010E941A04C701B6019A
:101160000E94910B9B01AC01C301B2010E94F00AE5
:1011700020E030E040E251E40E94480C0E94620B03
:1011800090E080E04AE00E941A0467CF8CE090E093
:1011900012CF10924E0310924D0381E0898380E1BB
:1011A0008A831B8286E08C831D8282E08E8366E0C8
:1011B00070E0CE0101960E94F7039F83888748E084
:1011C00050E094C08EE090E0112309F4F4CEEACE12
:1011D0008FE090E0113009F0E5CEEDCE80E190E0B7
:1011E000112309F4E8CEDECE81E190E0143009F05D
:1011F000D9CEE1CE82E190E0113009F0D3CEDBCE42
:1012000061E080FF60E086E00E94230261E011FF60
:1012100060E087E00E94230261E012FF60E088E066
:101220000E94230261E013FF60E089E00E94230234
:1012300083E190E0C0CE84E190E0BDCE10924E03F9
:1012400010924D0381E089839FE09A831B828C83F7
:101250001D8284E0ABCF86E190E0112309F4ABCE90
:10126000A1CE87E190E0123009F09CCEA4CE88E1B7
:1012700090E0112309F49FCE95CE89E190E01430DF
:1012800009F090CE98CE8AE190E095CE10924E0370
:1012900010924D0381E0898392E09A838B8381E1F0
:1012A0000E94FA017C0180E10E94FA0123E0EE0C29
:1012B000FF1C2A95E1F7880F991F880F991FE82ACC
:1012C0008FE00E94FA016C018EE00E94FA01CC0CC2
:1012D000DD1C8E298C298C8364E070E0CE010196A0
:1012E0000E94F7039D838E8346E050E0BE016F5F4E
:1012F0007F4F83E593E00E94C40037CE8CE190E0FD
:10130000112309F458CE4ECE8DE190E0183009F04B
:1013100049CE51CE8EE190E0103109F043CE4BCE54
:10132000809339038FE190E046CE80933A0380E2C8
:1013300090E041CE80933B0381E290E03CCE8093ED
:101340003C0382E290E037CE80933D0383E290E05D
:1013500032CE80933E0384E290E02DCE80933F0313
:1013600085E290E028CE80934003E1E0809116046E
:101370008111E0E0E195F0E0ED5FFB4F848980684A
:101380000E94F40489E393E00E940D0490924E03BE
:1013900080924D03EACDB0924E03A0924D03E5CD6D
:1013A00010924E0310924D0381E0898380E18A837D
:1013B0001B821C821D828FE0F9CE89E290E011230E
:1013C00009F4F9CDEFCD843029F430924E03209208
:1013D0004D03CBCD8EE290E0153009F0E3CDEBCD9F
:1013E0008BE290E0112309F4E6CDDCCD8CE290E0B5
:1013F000133009F0D7CDDFCD8DE290E0DCCD109237
:101400004E0310924D030E94E402882341F0809124
:10141000F6038C3009F464C038F48B30F1F060E0EE
:1014200070E080EC9FE741C085518230C0F7F090BA
:10143000F2036F2D70E0762F662766277F77809105
:10144000F303682B90E080E00E94910B2DEC3CECC4
:101450004CEC5DE30E94480C5FC06091F20370E0C9
:1014600090E080E00E94910B2B013C011091F3036E
:1014700017FF0AC0AC019B0160E070E080E89FEBC1
:101480000E94F00A2B013C01612F6F7070E090E028
:1014900080E00E94930B2DEC3CEC4CEC5DE30E9451
:1014A000480CA30192010E94F10A9B01AC010E9429
:1014B000F10A21E0298333E03A8336E03B831C8242
:1014C0002D837E836F839887898769E070E0CE01E2
:1014D00001960E94F7039A878B874BE050E006CF76
:1014E000F090F2036F2D70E090E080E00E94910B8D
:1014F0002B013C016091F3036F7070E090E080E09D
:101500000E94930B2DEC3CEC4CEC5DE30E94480CEC
:10151000A30192010E94F10AF7FEC7CF9058C5CFF0
:101520008FE290E0112309F446CD3CCD80E390E0BA
:10153000133009F037CD3FCD81E390E03CCD1092E0
:101540004E0310924D030E94E402882349F08091DB
:10155000F6038B3028F08D3040F08551823070F1E9
:1015600060E070E080EC9FE71CC06091F10370E0E8
:1015700090E080E00E94930B2DEC3CEC4CEC5DE3A2
:101580000E94480C6B017C016091F00370E090E0D8
:1015900080E00E94930B9B01AC01C701B6010E9441
:1015A000F10A9B01AC010E94F10A21E0298323E0AA
:1015B0002A8326E02B831C8222E082CF6091F003F5
:1015C0007091F10376276727762790E080E00E94EC
:1015D000910B2DEC3CEC4CEC5DE30E94480CE1CF10
:1015E0005058BB27AA270E94080B0C94090C0E9494
:1015F000FB0B38F00E94020C20F039F49F3F19F4E5
:1016000026F40C94F80B0EF4E095E7FB0C94F20B27
:10161000E92F0E941A0C58F3BA1762077307840760
:10162000950720F079F4A6F50C943C0C0EF4E095A7
:101630000B2EBA2FA02D0B01B90190010C01CA018C
:10164000A0011124FF27591B99F0593F50F4503E37
:1016500068F11A16F040A22F232F342F4427585F29
:10166000F3CF469537952795A795F0405395C9F741
:101670007EF41F16BA0B620B730B840BBAF09150F9
:10168000A1F0FF0FBB1F661F771F881FC2F70EC098
:10169000BA0F621F731F841F48F48795779567956B
:1016A000B795F7959E3F08F0B0CF9395880F08F057
:1016B0009927EE0F9795879508950E94CE0B08F411
:1016C00081E008950E94220C88F09F5798F0B92F6E
:1016D0009927B751B0F0E1F0660F771F881F991F67
:1016E0001AF0BA95C9F714C0B13091F00E943C0CC1
:1016F000B1E008950C943C0C672F782F8827B85FD1
:1017000039F0B93FCCF3869577956795B395D9F7BE
:101710003EF490958095709561957F4F8F4F9F4FC8
:101720000895E89409C097FB3EF4909580957095D4
:1017300061957F4F8F4F9F4F9923A9F0F92F96E91D
:10174000BB279395F695879577956795B795F11192
:10175000F8CFFAF4BB0F11F460FF1BC06F5F7F4F2F
:101760008F4F9F4F16C0882311F096E911C0772341
:1017700021F09EE8872F762F05C0662371F096E84A
:10178000862F70E060E02AF09A95660F771F881F19
:10179000DAF7880F9695879597F90895990F0008BD
:1017A000550FAA0BE0E8FEEF16161706E807F90733
:1017B000C0F012161306E407F50798F0621B730BCE
:1017C000840B950B39F40A2661F0232B242B252B4F
:1017D00021F408950A2609F4A140A6958FEF811DF2
:1017E000811D089597F99F6780E870E060E0089593
:1017F0009FEF80EC089500240A9416161706180629
:101800000906089500240A94121613061406050604
:101810000895092E0394000C11F4882352F0BB0F95
:1018200040F4BF2B11F460FF04C06F5F7F4F8F4FF8
:101830009F4F089557FD9058440F551F59F05F3F33
:1018400071F04795880F97FB991F61F09F3F79F0E2
:1018500087950895121613061406551FF2CF469564
:10186000F1DF08C0161617061806991FF1CF8695E6
:101870007105610508940895E894BB2766277727CA
:10188000CB0197F908950E94CE0B08F48FEF0895CD
:101890000E945B0C0C94090C0E94FB0B38F00E9418
:1018A000020C20F0952311F00C94F20B0C94F80B21
:1018B00011240C943D0C0E941A0C70F3959FC1F3F7
:1018C000950F50E0551F629FF001729FBB27F00DEE
:1018D000B11D639FAA27F00DB11DAA1F649F662743
:1018E000B00DA11D661F829F2227B00DA11D621F92
:1018F000739FB00DA11D621F839FA00D611D221F4C
:10190000749F3327A00D611D231F849F600D211D2F
:10191000822F762F6A2F11249F5750409AF0F1F0B2
:1019200088234AF0EE0FFF1FBB1F661F771F881F1B
:1019300091505040A9F79E3F510580F00C94F20B56
:101940000C943D0C5F3FE4F3983ED4F38695779575
:101950006795B795F795E7959F5FC1F7FE2B880FC1
:10196000911D9695879597F908950E94CE0B880B47
:10197000990B0895A1E21A2EAA1BBB1BFD010DC0F5
:10198000AA1FBB1FEE1FFF1FA217B307E407F5072F
:1019900020F0A21BB30BE40BF50B661F771F881F0B
:1019A000991F1A9469F760957095809590959B01A1
:1019B000AC01BD01CF010895EE0FFF1F0590F4911A
:1019C000E02D0994F894FFCF00C0C101C30302C207
:1019D000C60607C705C5C404CC0C0DCD0FCFCE0E6F
:1019E0000ACACB0BC90908C8D81819D91BDBDA1ADF
:1019F0001EDEDF1FDD1D1CDC14D4D515D71716D64F
:101A0000D21213D311D1D010F03031F133F3F232BE
:101A100036F6F737F53534F43CFCFD3DFF3F3EFE2E
:101A2000FA3A3BFB39F9F83828E8E929EB2B2AEA9E
:101A3000EE2E2FEF2DEDEC2CE42425E527E7E6260E
:101A400022E2E323E12120E0A06061A163A3A2627E
:101A500066A6A767A56564A46CACAD6DAF6F6EAEEE
:101A6000AA6A6BAB69A9A86878B8B979BB7B7ABA5E
:101A7000BE7E7FBF7DBDBC7CB47475B577B7B676CE
:101A800072B2B373B17170B050909151935352923E
:101A900096565797559594549C5C5D9D5F9F9E5EAE
:101AA0005A9A9B5B99595898884849894B8B8A4A1E
:101AB0004E8E8F4F8D4D4C8C44848545874746868E
:101AC000824243834181804000C1814001C0804106
:101AD00001C0804100C1814001C0804100C18140FE
:101AE00000C1814001C0804101C0804100C18140EE
:101AF00000C1814001C0804100C1814001C08041DE
:101B000001C0804100C1814001C0804100C18140CD
:101B100000C1814001C0804100C1814001C08041BD
:101B200001C0804100C1814000C1814001C08041AD
:101B300001C0804100C1814001C0804100C181409D
:101B400000C1814001C0804101C0804100C181408D
:101B500000C1814001C0804100C1814001C080417D
:101B600001C0804100C1814000C1814001C080416D
:101B700001C0804100C1814001C0804100C181405D
:101B800000C1814001C0804100C1814001C080414D
:101B900001C0804100C1814001C0804100C181403D
:101BA00000C1814001C0804101C0804100C181402D
:101BB00000C1814001C0804100C1814001C080411D
:101BC00001C0804100C18140000000006401C400E8
:101BD000F100B10122010001140100000000A00584
:101BE000C400F403F3037465737465004E3D200074
:0C1BF0006E616E00696E66006F76660024
:107E0000112484B714BE81FFF0D085E080938100F7
:107E100082E08093C00088E18093C10086E0809377
:107E2000C20080E18093C4008EE0C9D0259A86E02C
:107E300020E33CEF91E0309385002093840096BBD3
:107E4000B09BFECF1D9AA8958150A9F7CC24DD24C4
:107E500088248394B5E0AB2EA1E19A2EF3E0BF2EE7
:107E6000A2D0813461F49FD0082FAFD0023811F036
:107E7000013811F484E001C083E08DD089C08234E0
:107E800011F484E103C0853419F485E0A6D080C0E4
:107E9000853579F488D0E82EFF2485D0082F10E0AE
:107EA000102F00270E291F29000F111F8ED06801E7
:107EB0006FC0863521F484E090D080E0DECF843638
:107EC00009F040C070D06FD0082F6DD080E0C81688
:107ED00080E7D80618F4F601B7BEE895C0E0D1E017
:107EE00062D089930C17E1F7F0E0CF16F0E7DF06D8
:107EF00018F0F601B7BEE89568D007B600FCFDCFD4
:107F0000A601A0E0B1E02C9130E011968C91119780
:107F100090E0982F8827822B932B1296FA010C0160
:107F200087BEE89511244E5F5F4FF1E0A038BF0790
:107F300051F7F601A7BEE89507B600FCFDCF97BE46
:107F4000E89526C08437B1F42ED02DD0F82E2BD052
:107F50003CD0F601EF2C8F010F5F1F4F84911BD097
:107F6000EA94F801C1F70894C11CD11CFA94CF0C13
:107F7000D11C0EC0853739F428D08EE10CD085E9AC
:107F80000AD08FE07ACF813511F488E018D01DD067
:107F900080E101D065CF982F8091C00085FFFCCF94
:107FA0009093C60008958091C00087FFFCCF809118
:107FB000C00084FD01C0A8958091C6000895E0E648
:107FC000F0E098E1908380830895EDDF803219F02E
:107FD00088E0F5DFFFCF84E1DECF1F93182FE3DFCA
:107FE0001150E9F7F2DF1F91089580E0E8DFEE27F6
:047FF000FF270994CA
:027FFE00040479
:00000001FF
