:100000000C9462000C948A000C948A000C948A0070
:100010000C948A000C948A000C948A000C948A0038
:100020000C948A000C948A000C948A000C948A0028
:100030000C948A000C948A000C948A000C948A0018
:100040000C94FE050C948A000C94CC050C94A60527
:100050000C948A000C948A000C948A000C948A00F8
:100060000C948A000C948A000000000024002700F1
:100070002A0000000000250028002B0000000008D6
:10008000000201000003040700000000000000005F
:1000900000000000230026002900040404040404D6
:1000A0000404020202020202030303030303010227
:1000B00004081020408001020408102001020408F6
:1000C0001020480611241FBECFEFD8E0DEBFCDBF01
:1000D00013E0A0E0B1E0E0E4FAE102C005900D9287
:1000E000A834B107D9F724E0A8E4B3E001C01D9219
:1000F000AF32B207E1F710E0C2E6D0E004C02197CA
:10010000FE010E94180DC136D107C9F70E94B4063E
:100110000C941E0D0C940000CF92DF92EF92FF9290
:10012000CF93DF93B0910B04A0E08111AB2F8091AE
:100130000C0490E0880F991FAC0140575F4FC090AE
:100140001104D0901204E0901304F090140430E0F5
:1001500020E0FA01C591D491E881B90190E080E0F6
:10016000EB23EA130AC02F5F3F4F6C157D058E0508
:100170009F0578F36FEF7FEFCB01DF91CF91FF9079
:10018000EF90DF90CF900895AF92BF92CF92DF9221
:10019000EF92FF920F931F93CF93DF936C017B013C
:1001A0008B01040F151FEB015E01AE18BF08C017CD
:1001B000D10759F06991D601ED91FC910190F08140
:1001C000E02DC6010995892B79F7C501DF91CF9103
:1001D0001F910F91FF90EF90DF90CF90BF90AF9065
:1001E0000895FC01538D448D252F30E0842F90E03D
:1001F000821B930B541710F0CF9608950197089522
:10020000FC01918D828D981761F0A28DAE0FBF2FEA
:10021000B11D5D968C91928D9F5F9F73928F90E040
:1002200008958FEF9FEF0895FC01918D828D9817AF
:1002300031F0828DE80FF11D858D90E008958FEFEC
:100240009FEF0895FC01918D228D892F90E0805CB5
:100250009F4F821B91098F739927089587E693E03A
:100260000E94220121E0892B09F420E0822F0895C9
:1002700080E090E0892B29F00E942E0181110C94DE
:1002800000000895FC01A48DA80FB92FB11DA35A39
:10029000BF4F2C91848D90E001968F739927848FA6
:1002A000A689B7892C93A089B1898C9183708064C9
:1002B0008C93938D848D981306C00288F389E02D6A
:1002C00080818F7D80830895EF92FF920F931F931B
:1002D000CF93DF93EC0181E0888F9B8D8C8D9813F9
:1002E0001AC0E889F989808185FF15C09FB7F89405
:1002F000EE89FF896083E889F98980818370806451
:1003000080839FBF81E090E0DF91CF911F910F919B
:10031000FF90EF900895F62E0B8D10E00F5F1F4FAA
:100320000F731127E02E8C8D8E110CC00FB607FCB9
:10033000FACFE889F989808185FFF5CFCE010E9447
:100340004201F1CFEB8DEC0FFD2FF11DE35AFF4F72
:10035000F0829FB7F8940B8FEA89FB8980818062D5
:10036000CFCFCF93DF93EC01888D8823B9F0AA8992
:10037000BB89E889F9898C9185FD03C0808186FD60
:100380000DC00FB607FCF7CF8C9185FFF2CF8081AF
:1003900085FFEDCFCE010E944201E9CFDF91CF91E1
:1003A0000895833081F028F4813099F08230A9F0EB
:1003B00008958730A9F08830C9F08430B1F4809175
:1003C00080008F7D03C0809180008F7780938000B4
:1003D000089584B58F7784BD089584B58F7DFBCF54
:1003E0008091B0008F778093B00008958091B00025
:1003F0008F7DF9CFCF93DF93282F30E0F901E458B8
:10040000FF4F8491F901E255FF4FD491F901E6566F
:10041000FF4FC491CC23A1F081110E94D101EC2F98
:10042000F0E0EE0FFF1FE057FF4FA591B491EC9164
:10043000ED2381E090E009F480E0DF91CF91089511
:1004400080E090E0FACF1F93CF93DF93282F30E026
:10045000F901E458FF4F8491F901E255FF4FD4911F
:10046000F901E656FF4FC491CC23A9F0162F811154
:100470000E94D101EC2FF0E0EE0FFF1FEE58FF4F6E
:10048000A591B4918FB7F894EC91111108C0D09553
:10049000DE23DC938FBFDF91CF911F910895DE2B78
:1004A000F8CFCF93DF9390E0FC01E255FF4F24910A
:1004B00086569F4FFC0184918823C9F090E0880FF5
:1004C000991FFC01E859FF4FA591B491FC01EE582A
:1004D000FF4FC591D49161110DC09FB7F8948C91D5
:1004E000209582238C938881282328839FBFDF91C6
:1004F000CF910895623051F49FB7F8943C91822FC8
:10050000809583238C93E8812E2BEFCF8FB7F894BF
:10051000EC912E2B2C938FBFEACF3FB7F8948091AC
:10052000490390914A03A0914B03B0914C0326B527
:10053000A89B05C02F3F19F00196A11DB11D3FBF1B
:10054000BA2FA92F982F8827BC01CD01620F711DEA
:10055000811D911D42E0660F771F881F991F4A95E4
:10056000D1F708958F929F92AF92BF92CF92DF9270
:10057000EF92FF924B015C010E948D026B017C01A6
:100580000E948D026C197D098E099F09683E734097
:1005900081059105A8F321E0821A9108A108B1080C
:1005A00088EEC80E83E0D81EE11CF11C8114910472
:1005B000A104B10429F7FF90EF90DF90CF90BF9096
:1005C000AF909F908F900895CF92DF92EF92FF921D
:1005D0000F931F93CF93DF93CDB7DEB7C054D140B5
:1005E0000FB6F894DEBF0FBECDBF2FB7F894809141
:1005F000630390916403A0916503B09166032FBFDC
:1006000040910D0450910E0460910F0470911004FC
:100610008C019D01041B150B260B370BB901A8019A
:10062000403D57406105710590F480911504C05C10
:10063000DE4F0FB6F894DEBF0FBECDBFDF91CF9176
:100640001F910F91FF90EF90DF90CF9008958093CE
:100650000D0490930E04A0930F04B0931004109215
:1006600008041092070410920604109205041092D8
:10067000040462E0809109040E94510261E070E08C
:1006800080E090E00E94B20261E0809109040E9443
:10069000510260E0809109040E94230280910A04C3
:1006A0008551823020F58BE291E10197F1F762E00C
:1006B000809109040E9451028091160490E08230DA
:1006C000910538F0880F991F880F991F059701979A
:1006D000F1F7F89480E00E948C006F3F7F4F8F4FBE
:1006E0009F4F61F410921504789480E0A0CF64E1EC
:1006F00070E080E090E00E94B202D9CF81E00E94D9
:100700008C006F3F7F4F8F4F9F4F61F38E010F5FC4
:100710001F4F6E018FEBC81A8EEFD80A780180E068
:100720000E948C00F701608371838283938381E050
:100730000E948C00F7016483758386839783F8E0B9
:10074000EF0EF11CEC14FD0451F7789430E020E03A
:10075000F801C080D180E280F380448155816681B8
:100760007781FFEFCF16DF06EF06FF0631F04F3F30
:100770008FEF58076807780719F410921504B5CF62
:10078000F90183E0F595E7958A95E1F7EC5FFB4F7A
:100790008081880FC416D506E606F70610F180831F
:1007A0002F5F3F4F085F1F4F2832310589F6409178
:1007B00008042091040480910504280F3327331F77
:1007C00080910604280F311D80910704820F932F1A
:1007D000911D99274817190681F681E08093150429
:1007E00026CF8160DCCF089590E080E00895DC01A1
:1007F000680F791F9FEF8FEFA617B70769F02D914C
:10080000292730E0F901E050FE4F90819827F90147
:10081000E050FF4F8081F0CF0895FC01019000204F
:10082000E9F73197AF01481B590BBC0187E194E010
:100830000C94C4008F929F92AF92BF920F931F931C
:10084000CF93DF93CDB7DEB7A1970FB6F894DEBF95
:100850000FBECDBF19A2423008F44AE08E010F5DF1
:100860001F4F842E912CB12CA12CA50194010E9424
:10087000F60CE62FB901CA01EA30F4F4E05DD801C4
:10088000EE938D01232B242B252B79F790E080E02C
:10089000109719F0CD010E940D04A1960FB6F8949F
:1008A000DEBF0FBECDBFDF91CF911F910F91BF90E3
:1008B000AF909F908F900895E95CE1CFCF93DF9345
:1008C000EC0160E08E810E94230261E08E810E9433
:1008D000230260E08E810E9423028BE891E0019761
:1008E000F1F7DF91CF910895CF92DF92EF92FF92CF
:1008F0000F931F93CF93DF936C017C0187E0E80E89
:10090000F11CD0E0C0E0062F10E0B8010C2E02C0B0
:10091000759567950A94E2F76170F70181917F01FF
:100920000E9423022196C430D10579F7C601DF91D8
:10093000CF911F910F91FF90EF90DF90CF900C948B
:100940005E04CF92DF92EF92FF920F931F93CF93AB
:10095000DF93EC01F62E642F8C810E9423028D819F
:100960008F3F19F060E00E9423020F2D10E08F8569
:1009700084FF25C06E0187E0C80ED11CF12CE12C4C
:10098000B8010E2C02C0759567950A94E2F7617064
:10099000F60181916F010E942302FFEFEF1AFF0A17
:1009A00088E0E816F10461F7CE01DF91CF911F9145
:1009B0000F91FF90EF90DF90CF900C945E04B80100
:1009C00084E0759567958A95E1F7CE010E947404DD
:1009D0006F2DCE01DF91CF911F910F91FF90EF907E
:1009E000DF90CF900C94740440E0682F87E194E08E
:1009F0000C94A104CF93DF93823029F490912604C4
:100A000098609093260480932A0410922B0480E42B
:100A100080932C0480E180932D0480E580932E0444
:100A200061E080911B040E94510280911C048F3F61
:100A300019F061E00E94510261E080911D040E9462
:100A40005102C7E1D4E09E01275134408091260431
:100A500084FD0BC084E090E021962817390744F408
:100A600061E08E810E945102EECF88E090E0F4CFE9
:100A70008BE39DE00197F1F760E080911B040E94F9
:100A8000230260E080911D040E94230280911C04D7
:100A90008F3F19F060E00E9423028091260484FDBC
:100AA00039C063E087E194E00E947404CBE4D6E4AB
:100AB000CE010197F1F763E087E194E00E947404AE
:100AC0002197F1F763E087E194E00E94740483E5E5
:100AD00092E00197F1F762E087E194E00E947404EC
:100AE0008091260480620E94F40484E080932704AD
:100AF0008CE00E94F40481E00E94F4048BE39FE107
:100B00000197F1F782E08093280486E0DF91CF918E
:100B10000C94F40480620E94F4048BE496E4019740
:100B2000F1F78091260480620E94F40483E592E04C
:100B30000197F1F78091260480620E94F404D0CFDF
:100B400041E00E94A10481E090E008951F920F927D
:100B50000FB60F9211242F933F934F935F936F9390
:100B60007F938F939F93AF93BF93EF93FF9387E60A
:100B700093E00E944201FF91EF91BF91AF919F914D
:100B80008F917F916F915F914F913F912F910F9036
:100B90000FBE0F901F9018951F920F920FB60F92D5
:100BA00011242F938F939F93EF93FF93E0917703FB
:100BB000F09178038081E0917D03F0917E0382FDC6
:100BC0001BC09081809180038F5F8F732091810380
:100BD000821741F0E0918003F0E0E959FC4F958FD6
:100BE00080938003FF91EF919F918F912F910F90B0
:100BF0000FBE0F901F9018958081F4CF1F920F9217
:100C00000FB60F9211242F933F938F939F93AF931F
:100C1000BF938091630390916403A0916503B091A9
:100C200066033091480323E0230F2D3758F50196D2
:100C3000A11DB11D20934803809363039093640327
:100C4000A0936503B09366038091490390914A0392
:100C5000A0914B03B0914C030196A11DB11D80934F
:100C6000490390934A03A0934B03B0934C03BF9165
:100C7000AF919F918F913F912F910F900FBE0F9049
:100C80001F90189526E8230F0296A11DB11DD2CF03
:100C9000CF93E7E6F3E01382128288EE93E0A0E0C0
:100CA000B0E084839583A683B78384E093E0918347
:100CB000808385EC90E09587848784EC90E097872B
:100CC000868780EC90E0918B808B81EC90E0938B19
:100CD000828B82EC90E0958B848B86EC90E0978BF6
:100CE000868B118E128E138E148EE7E1F4E0138240
:100CF000128286E193E0918380838CE084838FEF7E
:100D00008583CBE0C68385E0878384E0808783E0AA
:100D1000818782E082871386148615861686178659
:100D200081E00E94FA04A4E0B4E08AE015968C9376
:100D300015971696CC931697E8EBF0E0E49117968A
:100D4000EC931797E4EAF0E0E4911896EC93189787
:100D500040E85EE360E070E01D964D935D936D9317
:100D60007C935097CF910895CF93DF93CDB7DEB7A3
:100D70006E970FB6F894DEBF0FBECDBF789484B5E2
:100D8000826084BD84B5816084BD85B5826085BD87
:100D900085B5816085BD80916E00816080936E0015
:100DA0001092810080918100826080938100809107
:100DB00081008160809381008091800081608093B8
:100DC00080008091B10084608093B1008091B00078
:100DD00081608093B00080917A00846080937A0073
:100DE00080917A00826080937A0080917A0081609D
:100DF00080937A0080917A00806880937A001092C4
:100E0000C10082E00E94FA04E0917703F091780338
:100E100082E08083E0917303F09174031082E0918B
:100E20007503F09176038FEC808310927F03E0913D
:100E30007B03F0917C0386E08083E0917903F0915D
:100E40007A03808180618083E0917903F0917A0355
:100E5000808188608083E0917903F0917A038081BA
:100E600080688083E0917903F0917A0380818F7D9F
:100E7000808361E086E00E94510261E087E00E9489
:100E8000510261E088E00E94510261E089E00E9425
:100E9000510260E08EE00E94510260E08FE00E940B
:100EA000510260E080E10E94510260E081E10E9415
:100EB00051025AE2252E312C67E2A62EB12C76E2A1
:100EC000872E912C87E693E00E94220118161906BE
:100ED0000CF04FC087E693E00E940001182FE091CC
:100EE0006103F0916203EA33F10508F042C0E5586E
:100EF000F84F0C94180DB507C607DB07E407ED079C
:100F0000F207F707FC07010806080B08CA08CD0816
:100F1000E608EC08F208F808FE0804091F0922098F
:100F20002F0935093B09410947094A0982098809FE
:100F30008E09940999099E09A309A809AD09B20966
:100F4000DF09080A0D0A190A1F0A2C0A320A380A90
:100F50003B0ACC0AD20AD80ADB0AB709BC09C10984
:100F6000C609CB09D009D509DA0981E090E0113032
:100F700031F180E090E0892B09F4A4CF0E942E018A
:100F8000882309F496CF0E94000093CF82E090E07E
:100F90001031A9F08DE090E01F3089F085E190E0FC
:100FA000123069F088E290E0133049F01092620349
:100FB00010926103DECF83E090E01111F7CF9093A0
:100FC000620380936103D5CF84E090E01630B9F3DB
:100FD0008BE190E0112399F3E9CF85E090E01123B4
:100FE00071F3E4CF86E090E0123001F7E8CF87E0BC
:100FF00090E01430D9F6E3CF80935E0388E090E070
:10100000DECF80935D0389E090E0D9CF80936003C9
:101010008AE090E0D4CF80935F03E0912A04E3302C
:1010200018F5E150F0E0E95EFB4F848980680E948A
:10103000F4048EE193E00E940D04C0905D03D09013
:101040005E03E0905F03F0906003A7019601C70183
:10105000B6010E94F10C882349F08AE293E00E94D5
:101060000D048BE090E0ABCFE2E0DCCF260137014E
:10107000E89477F82FEF3FEF4FE75FE7C301B20146
:101080000E94F10C81110DC02FEF3FEF4FE75FE79A
:10109000C301B2010E94990B18161CF48EE293E072
:1010A000DECF2FEF3FEF4FE75FE4C701B6010E94AD
:1010B0007F0C18161CF482E393E0D1CF2FEF3FEFA3
:1010C0004FE75FECC701B6010E94990B87FDF3CF94
:1010D00020E030E0A901C701B6010E94990B87FF0B
:1010E0000AC041E06DE287E194E00E94A104F7FAB2
:1010F000F094F7F8F0942AE037ED43EA5BE3C70198
:10110000B6010E942D0B2B013C010E949E0B6B012E
:101110007C010E94CD0B9B01AC01C301B2010E9476
:101120002C0B2B013C014AE0C701B6010E941A04B6
:1011300041E06EE287E194E00E94A10420E030E00B
:1011400040E251E4C301B2010E94840C2B013C0136
:101150000E949E0B6B01F12CE12C4AE0C701B60105
:101160000E941A04C701B6010E94CD0B9B01AC017D
:10117000C301B2010E942C0B20E030E040E251E4B8
:101180000E94840C0E949E0B90E080E04AE00E9446
:101190001A0467CF8CE090E012CF10926203109295
:1011A000610381E0898380E18A831B8286E08C83EE
:1011B0001D8282E08E8366E070E0CE0101960E947F
:1011C000F7039F83888748E050E094C08EE090E06A
:1011D000112309F4F4CEEACE8FE090E0113009F04B
:1011E000E5CEEDCE80E190E0112309F4E8CEDECE2D
:1011F00081E190E0143009F0D9CEE1CE82E190E0B7
:10120000113009F0D3CEDBCE61E080FF60E086E0F4
:101210000E94230261E011FF60E087E00E94230248
:1012200061E012FF60E088E00E94230261E013FFAA
:1012300060E089E00E94230283E190E0C0CE84E177
:1012400090E0BDCE109262031092610381E0898329
:101250009FE09A831B828C831D8284E0ABCF86E162
:1012600090E0112309F4ABCEA1CE87E190E01230DB
:1012700009F09CCEA4CE88E190E0112309F49FCE22
:1012800095CE89E190E0143009F090CE98CE8AE1B5
:1012900090E095CE109262031092610381E0898301
:1012A00092E09A838B8381E10E94FA017C0180E1C4
:1012B0000E94FA0123E0EE0CFF1C2A95E1F7880F4B
:1012C000991F880F991FE82A8FE00E94FA016C018C
:1012D0008EE00E94FA01CC0CDD1C8E298C298C83B7
:1012E00064E070E0CE0101960E94F7039D838E8337
:1012F00046E050E0BE016F5F7F4F87E693E00E94BB
:10130000C40037CE8CE190E0112309F458CE4ECEC4
:101310008DE190E0103109F049CE51CE8EE190E0A0
:10132000103209F043CE4BCE80934D038FE190E015
:1013300046CE80934E0380E290E041CE80934F03EF
:1013400081E290E03CCE8093500382E290E037CE81
:101350008093510383E290E032CE8093520384E283
:1013600090E02DCE8093530382E390E028CE8093CB
:10137000540383E390E023CE8093550384E390E00D
:101380001ECE8093560385E390E019CE80935703D9
:1013900086E390E014CE8093580387E390E00FCE6D
:1013A0008093590388E390E00ACE80935A0389E33F
:1013B00090E005CE80935B0385E290E000CE8093C1
:1013C0005C03E1E080912A048111E0E0E195F0E026
:1013D000E95EFB4F848980680E94F40486E393E011
:1013E0000E940D04E1E080912A048111E0E0E19582
:1013F000F0E0E95EFB4F848980680E94F4048DE48C
:1014000093E00E940D049092620380926103B1CD3B
:10141000B0926203A0926103ACCD1092620310926D
:10142000610381E0898380E18A831B821C821D82A3
:10143000C1CE89E290E0112309F4C1CDB7CD84304B
:1014400029F4309262032092610393CD8EE290E002
:10145000153009F0ABCDB3CD8BE290E0112309F448
:10146000AECDA4CD8CE290E0133009F09FCDA7CD96
:101470008DE290E0A4CD10926203109261030E946D
:10148000E402882341F080910A048C3009F464C09E
:1014900038F48B30F1F060E070E080EC9FE741C001
:1014A00085518230C0F7F09006046F2D70E0762FE2
:1014B000662766277F7780910704682B90E080E09D
:1014C0000E94CD0B2DEC3CEC4CEC5DE30E94840CB7
:1014D0005FC06091060470E090E080E00E94CD0B58
:1014E0002B013C011091070417FF0AC0AC019B01BE
:1014F00060E070E080E89FEB0E942C0B2B013C0128
:10150000612F6F7070E090E080E00E94CF0B2DECB7
:101510003CEC4CEC5DE30E94840CA30192010E9420
:101520002D0B9B01AC010E942D0B21E0298333E0A0
:101530003A8336E03B831C822D837E836F839887BA
:10154000898769E070E0CE0101960E94F7039A87CF
:101550008B874BE050E0CECEF09006046F2D70E00C
:1015600090E080E00E94CD0B2B013C0160910704CC
:101570006F7070E090E080E00E94CF0B2DEC3CECAF
:101580004CEC5DE30E94840CA30192010E942D0BA0
:10159000F7FEC7CF9058C5CF8FE290E0112309F432
:1015A0000ECD04CD80E390E0133009F0FFCC07CDE1
:1015B00081E390E004CD10926203109261030E94D7
:1015C000E402882349F080910A048B3028F08D30A2
:1015D00040F08551823070F160E070E080EC9FE770
:1015E0001CC06091050470E090E080E00E94CF0B89
:1015F0002DEC3CEC4CEC5DE30E94840C6B017C0117
:101600006091040470E090E080E00E94CF0B9B01A9
:10161000AC01C701B6010E942D0B9B01AC010E94D9
:101620002D0B21E0298323E02A8326E02B831C82D3
:1016300022E082CF60910404709105047627672729
:10164000762790E080E00E94CD0B2DEC3CEC4CEC3A
:101650005DE30E94840CE1CF5058BB27AA270E946B
:10166000440B0C94450C0E94370C38F00E943E0C41
:1016700020F039F49F3F19F426F40C94340C0EF446
:10168000E095E7FB0C942E0CE92F0E94560C58F3C2
:10169000BA17620773078407950720F079F4A6F557
:1016A0000C94780C0EF4E0950B2EBA2FA02D0B01A4
:1016B000B90190010C01CA01A0011124FF27591B97
:1016C00099F0593F50F4503E68F11A16F040A22F9D
:1016D000232F342F4427585FF3CF4695379527950E
:1016E000A795F0405395C9F77EF41F16BA0B620B0D
:1016F000730B840BBAF09150A1F0FF0FBB1F661F54
:10170000771F881FC2F70EC0BA0F621F731F841F96
:1017100048F4879577956795B795F7959E3F08F0BC
:10172000B0CF9395880F08F09927EE0F979587957E
:1017300008950E940A0C08F481E008950E945E0C4E
:1017400088F09F5798F0B92F9927B751B0F0E1F082
:10175000660F771F881F991F1AF0BA95C9F714C032
:10176000B13091F00E94780CB1E008950C94780C9F
:10177000672F782F8827B85F39F0B93FCCF386956B
:1017800077956795B395D9F73EF4909580957095C8
:1017900061957F4F8F4F9F4F0895E89409C097FB45
:1017A0003EF490958095709561957F4F8F4F9F4F38
:1017B0009923A9F0F92F96E9BB279395F69587957C
:1017C00077956795B795F111F8CFFAF4BB0F11F43F
:1017D00060FF1BC06F5F7F4F8F4F9F4F16C08823E6
:1017E00011F096E911C0772321F09EE8872F762F1C
:1017F00005C0662371F096E8862F70E060E02AF05D
:101800009A95660F771F881FDAF7880F9695879548
:1018100097F90895990F0008550FAA0BE0E8FEEF1D
:1018200016161706E807F907C0F012161306E407A4
:10183000F50798F0621B730B840B950B39F40A269D
:1018400061F0232B242B252B21F408950A2609F47B
:10185000A140A6958FEF811D811D089597F99F677F
:1018600080E870E060E008959FEF80EC0895002428
:101870000A941616170618060906089500240A94F5
:1018800012161306140605060895092E0394000C7B
:1018900011F4882352F0BB0F40F4BF2B11F460FF0A
:1018A00004C06F5F7F4F8F4F9F4F089557FD905833
:1018B000440F551F59F05F3F71F04795880F97FB14
:1018C000991F61F09F3F79F08795089512161306CE
:1018D0001406551FF2CF4695F1DF08C016161706FD
:1018E0001806991FF1CF8695710561050894089532
:1018F000E894BB2766277727CB0197F908950E94C4
:101900000A0C08F48FEF08950E94970C0C94450C74
:101910000E94370C38F00E943E0C20F0952311F005
:101920000C942E0C0C94340C11240C94790C0E9401
:10193000560C70F3959FC1F3950F50E0551F629FB1
:10194000F001729FBB27F00DB11D639FAA27F00D18
:10195000B11DAA1F649F6627B00DA11D661F829F3F
:101960002227B00DA11D621F739FB00DA11D621F24
:10197000839FA00D611D221F749F3327A00D611D41
:10198000231F849F600D211D822F762F6A2F112423
:101990009F5750409AF0F1F088234AF0EE0FFF1F56
:1019A000BB1F661F771F881F91505040A9F79E3FAD
:1019B000510580F00C942E0C0C94790C5F3FE4F3ED
:1019C000983ED4F3869577956795B795F795E79503
:1019D0009F5FC1F7FE2B880F911D9695879597F90C
:1019E00008950E940A0C880B990B0895A1E21A2E03
:1019F000AA1BBB1BFD010DC0AA1FBB1FEE1FFF1FB3
:101A0000A217B307E407F50720F0A21BB30BE40B02
:101A1000F50B661F771F881F991F1A9469F7609549
:101A20007095809590959B01AC01BD01CF01089503
:101A3000EE0FFF1F0590F491E02D0994F894FFCF6D
:101A400000C0C101C30302C2C60607C705C5C4045E
:101A5000CC0C0DCD0FCFCE0E0ACACB0BC90908C8CE
:101A6000D81819D91BDBDA1A1EDEDF1FDD1D1CDCBE
:101A700014D4D515D71716D6D21213D311D1D0102E
:101A8000F03031F133F3F23236F6F737F53534F41E
:101A90003CFCFD3DFF3F3EFEFA3A3BFB39F9F8388E
:101AA00028E8E929EB2B2AEAEE2E2FEF2DEDEC2C7E
:101AB000E42425E527E7E62622E2E323E12120E0EE
:101AC000A06061A163A3A26266A6A767A56564A4DE
:101AD0006CACAD6DAF6F6EAEAA6A6BAB69A9A8684E
:101AE00078B8B979BB7B7ABABE7E7FBF7DBDBC7C3E
:101AF000B47475B577B7B67672B2B373B17170B0AE
:101B0000509091519353529296565797559594549D
:101B10009C5C5D9D5F9F9E5E5A9A9B5B995958980D
:101B2000884849894B8B8A4A4E8E8F4F8D4D4C8CFD
:101B3000448485458747468682424383418180406D
:101B400000C1814001C0804101C0804100C181408D
:101B500001C0804100C1814000C1814001C080417D
:101B600001C0804100C1814000C1814001C080416D
:101B700000C1814001C0804101C0804100C181405D
:101B800001C0804100C1814000C1814001C080414D
:101B900000C1814001C0804101C0804100C181403D
:101BA00000C1814001C0804101C0804100C181402D
:101BB00001C0804100C1814000C1814001C080411D
:101BC00001C0804100C1814000C1814001C080410D
:101BD00000C1814001C0804101C0804100C18140FD
:101BE00000C1814001C0804101C0804100C18140ED
:101BF00001C0804100C1814000C1814001C08041DD
:101C000000C1814001C0804101C0804100C18140CC
:101C100001C0804100C1814000C1814001C08041BC
:101C200001C0804100C1814000C1814001C08041AC
:101C300000C1814001C0804101C0804100C181409C
:101C4000000000006401C400F100B10122010001A4
:101C5000140100000000A005C400F403F3034E6F5C
:101C600020666C616F74203D20006E616E00696EAD
:101C700066006F7666002020202020202020202073
:081C800020202020202000009C
:00000001FF
